:100000000C945D000C9485000C9485000C94850084
:100010000C9485000C9485000C9485000C9485004C
:100020000C9485000C9485000C9485000C9485003C
:100030000C9485000C9485000C9485000C9485002C
:100040000C94C3050C9485000C9433060C940D0697
:100050000C9485000C9485000C9485000C9485000C
:100060000C9465060C948500000000080002010055
:100070000003040700000000000000000000000072
:10008000250028002B0000000000240027002A0083
:10009000040404040404040402020202020203032E
:1000A0000303030301020408102040800102040836
:1000B0001020010204081020800711241FBECFEF7A
:1000C000D8E0DEBFCDBF11E0A0E0B1E0E8E3F6E1AB
:1000D00002C005900D92A634B107D9F722E0A6E43C
:1000E000B1E001C01D92A939B207E1F710E0CDE5FA
:1000F000D0E004C02197FE010E94140BCC35D1073B
:10010000C9F70E94C8070C941A0B0C940000CF93F7
:10011000DF9390E0FC01EC55FF4F249180579F4FF7
:10012000FC0184918823C1F090E0880F991FFC01A5
:10013000EA57FF4FC591D491FC01E458FF4FA591B8
:10014000B4919FB7F8948881E22FE0958E2388833D
:100150008C91E823EC939FBFDF91CF91089590E0BD
:10016000FC01E859FF4F2491FC01EC55FF4F3491FD
:10017000FC01E057FF4FE491EE23C9F0222339F050
:10018000233001F1A8F4213019F1223029F1F0E0F7
:10019000EE0FFF1FE458FF4FA591B4918FB7F8946D
:1001A000EC91611126C030953E233C938FBF08959A
:1001B0002730A9F02830C9F0243049F78091800019
:1001C0008F7D03C0809180008F7780938000DFCF88
:1001D00084B58F7784BDDBCF84B58F7DFBCF8091D5
:1001E000B0008F778093B000D2CF8091B0008F7D28
:1001F000F9CF3E2BDACF8E50806480937C008091C3
:100200007A00806480937A0080917A0086FDFCCF2A
:10021000809178009091790008953FB7F89480918B
:10022000E0019091E101A091E201B091E30126B5D6
:10023000A89B05C02F3F19F00196A11DB11D3FBF1E
:10024000BA2FA92F982F8827BC01CD01620F711DED
:10025000811D911D42E0660F771F881F991F4A95E7
:10026000D1F70895AF92BF92CF92DF92EF92FF92B3
:100270000F931F93CF93DF936C017B018B01040FCE
:10028000151FEB015E01AE18BF08C017D10759F06A
:100290006991D601ED91FC910190F081E02DC601AC
:1002A0000995892B79F7C501DF91CF911F910F91A6
:1002B000FF90EF90DF90CF90BF90AF900895FC013A
:1002C000538D448D252F30E0842F90E0821B930BBB
:1002D000541710F0CF96089501970895FC01918D61
:1002E000828D981761F0A28DAE0FBF2FB11D5D9664
:1002F0008C91928D9F5F9F73928F90E008958FEF06
:100300009FEF0895FC01918D828D981731F0828DB9
:10031000E80FF11D858D90E008958FEF9FEF089510
:10032000FC01918D228D892F90E0805C9F4F821B74
:1003300091098F739927089584EE91E00E949001AE
:1003400021E0892B09F420E0822F089580E090E0DD
:10035000892B29F00E949C0181110C9400000895C2
:10036000FC01A48DA80FB92FB11DA35ABF4F2C912A
:10037000848D90E001968F739927848FA689B78921
:100380002C93A089B1898C91837080648C93938D18
:10039000848D981306C00288F389E02D80818F7DBB
:1003A00080830895EF92FF920F931F93CF93DF9373
:1003B000EC0181E0888F9B8D8C8D98131AC0E889A1
:1003C000F989808185FF15C09FB7F894EE89FF8970
:1003D0006083E889F98980818370806480839FBF0E
:1003E00081E090E0DF91CF911F910F91FF90EF900E
:1003F0000895F62E0B8D10E00F5F1F4F0F7311271E
:10040000E02E8C8D8E110CC00FB607FCFACFE88958
:10041000F989808185FFF5CFCE010E94B001F1CF2F
:10042000EB8DEC0FFD2FF11DE35AFF4FF0829FB7CC
:10043000F8940B8FEA89FB8980818062CFCFCF93BC
:10044000DF93EC01888D8823B9F0AA89BB89E889FC
:10045000F9898C9185FD03C0808186FD0DC00FB6A2
:1004600007FCF7CF8C9185FFF2CF808185FFEDCF20
:10047000CE010E94B001E9CFDF91CF910895089598
:100480001F93CF93DF93C1E0C0934701882399F175
:10049000D091B8001091BA008091BC008A7B809303
:1004A000BC0060E082E10E94AF0060E083E10E9456
:1004B000AF001092B101C093B00110928B0161E0C6
:1004C00082E10E94AF0061E083E10E94AF00809171
:1004D000B9008E7F8093B9008091B9008D7F8093A1
:1004E000B90088E48093B80085E48093BC00109341
:1004F000BA00D093B800DF91CF911F910895209159
:100500006801260F3327331F21323105ECF4209187
:10051000B101FC0190E080E0243069F082E00895B0
:10052000A09168012191AC01485B5E4FA40FB52FEB
:10053000B11D2C930196861798F380916801680F7E
:100540006093680180E0089581E0089508958FEF39
:100550009FEF08958FEF9FEF08958091460190E0FF
:100560009195819591090895CF92DF92EF92FF9234
:100570000F931F93CF93DF937C01CB018A012091CE
:10058000B701222389F0EB016B01C40ED51ECC15F7
:10059000DD0569F06991D701ED91FC910190F08141
:1005A000E02DC7010995F3CF642F0E947F02C80197
:1005B000DF91CF911F910F91FF90EF90DF90CF903F
:1005C0000895CF93DF931F92CDB7DEB76983209153
:1005D000B7012223F9F02091DA01203258F021E00E
:1005E00030E0FC013383228390E080E00F90DF91C4
:1005F000CF9108958091B801E82FF0E0E754FE4FC5
:10060000998190838F5F8093B8018093DA0181E0B4
:1006100090E0ECCF61E0CE0101960E947F02F7CF1F
:10062000CF92DF92EF92FF920F931F93CF93DF93BE
:10063000FC01C48121E02093B701C093D90110923D
:10064000B8011092DA018385682B81E892E00E945C
:10065000E102D091DA01D13208F092C00E940D017E
:100660006B017C018091B101811165C082E08093B2
:10067000B10181E08093B0018FEF8093AF011092C0
:10068000AE01D093AD01A9EBB1E0EDE8F1E080E07F
:10069000D81385C010928C0180918C01CC0FC82B8F
:1006A000C0938C0180918B01813009F07CC0109245
:1006B0008B010E940D016B017C0180918C01809364
:1006C000BB008091B3019091B401A091B501B091AC
:1006D000B601892B8A2B8B2B99F00E940D0100917A
:1006E000B3011091B4012091B5013091B6016C199C
:1006F0007D098E099F090617170728073907E0F1BA
:100700008091BC0083FDD9CF85EC8093BC000E9412
:100710000D016B017C018091B101823009F445C06B
:100720008091AF018F3F61F18091AF01803241F143
:100730008091AF0125C08091B3019091B401A09147
:10074000B501B091B601892B8A2B8B2B09F48ACF86
:100750000E940D010091B3011091B4012091B501E7
:100760003091B6016C197D098E099F09061717078C
:100770002807390708F076CF8091B2010E94400225
:100780001092B8011092DA011092B701DF91CF9167
:100790001F910F91FF90EF90DF90CF9008959D9162
:1007A00091938F5F75CF85EEB0CF8091B30190911B
:1007B000B401A091B501B091B601892B8A2B8B2B86
:1007C00009F4A9CF0E940D010091B3011091B40169
:1007D0002091B5013091B6016C197D098E099F09F0
:1007E000061717072807390708F095CFC5CF90E0FF
:1007F00080E00895FB0101900020E9F73197AF01F7
:10080000461B570BDC01ED91FC910280F381E02D3A
:1008100009948F929F92AF92BF92EF92FF920F93A3
:100820001F93CF93DF93CDB7DEB7A1970FB6F894A0
:10083000DEBF0FBECDBF7C01FA01CB0119A2223071
:1008400008F42AE08E010F5D1F4F822E912CB12CEF
:10085000A12CBF01A50194010E94F20AF901CA016D
:100860006A300CF5605DD8016E938D01232B242B2B
:10087000252B79F790E080E0109721F0BD01C701AA
:100880000E94FA03A1960FB6F894DEBF0FBECDBF4B
:10089000DF91CF911F910F91FF90EF90BF90AF909C
:1008A0009F908F900895695CDECF2F923F924F9278
:1008B0005F926F927F928F929F92AF92BF92CF92F0
:1008C000DF92EF92FF921F93CF93DF93EC016A01C7
:1008D0007B01722EAB019601CB01B6010E94ED0A9D
:1008E00060E371E0811126C046015701E894B7F832
:1008F0002FEF3FEF4FE75FE7C501B4010E94ED0A1C
:1009000081110CC02FEF3FEF4FE75FE7C501B40146
:100910000E94230964E371E0181664F02FEF3FEFA3
:100920004FE75FE4C701B6010E947B0A1816B4F4D2
:1009300068E371E0CE01DF91CF911F91FF90EF90BE
:10094000DF90CF90BF90AF909F908F907F906F90EF
:100950005F904F903F902F900C94FA032FEF3FEF52
:100960004FE75FECC701B6010E94230987FDE0CF86
:1009700020E030E0A901C701B6010E942309312C13
:10098000212C87FF0DC0E881F9810190F081E02DD5
:100990006DE2CE0109951C01F7FAF094F7F8F09496
:1009A00010E060E070E080E09FE3711641F020E02D
:1009B00030E040E251E40E9428091F5FF6CFA70112
:1009C00096010E94B7082B013C010E949A094B0135
:1009D0005C012AE0BC01A401CE010E9409047C0153
:1009E000E20CF31C1123E1F1C501B4010E94C90915
:1009F0009B01AC01C301B2010E94B6084B015C012E
:100A0000E881F9810190F081E02D6EE2CE01099537
:100A1000E80EF91E115020F120E030E040E251E4F0
:100A2000C501B4010E94800A2B013C010E949A0971
:100A30004B01B12CA12C2AE0B501A401CE010E94EA
:100A40000904E80EF91EC501B4010E94C9099B0101
:100A5000AC01C301B2010E94B6084B015C01DACFC0
:100A6000C701DF91CF911F91FF90EF90DF90CF9062
:100A7000BF90AF909F908F907F906F905F904F90BE
:100A80003F902F9008950F931F93CF938C01C62F03
:100A900064600E9410036C2F6B7FC8010E941003DA
:100AA00083EC90E00197F1F7CF911F910F9108959A
:100AB000FF920F931F93CF93DF938C01D62FC42FF8
:100AC000862F807FF82EF42A6F2DC8010E94100314
:100AD0006F2DC8010E94430580E1D89FB001112409
:100AE000C62B6C2FC8010E9410036C2FC801DF9128
:100AF000CF911F910F91FF900C944305682F606870
:100B000040E08DE892E00C94580541E00E945805C1
:100B100081E090E0089585ED8093BC008091B30161
:100B20009091B401A091B501B091B6010796A11DB5
:100B3000B11D23E0B695A795979587952A95D1F78E
:100B40002091BC0024FD03C01092B1010895409192
:100B5000B3015091B4016091B5017091B601452B7C
:100B6000462B472B69F30097A105B10541F02AE216
:100B70002A95F1F700C00197A109B109E1CF809151
:100B8000B2010C9440021F920F920FB60F921124E3
:100B90002F933F938F939F93AF93BF938091DC01EB
:100BA0009091DD01A091DE01B091DF013091DB0178
:100BB00023E0230F2D3758F50196A11DB11D209379
:100BC000DB018093DC019093DD01A093DE01B09303
:100BD000DF018091E0019091E101A091E201B091EB
:100BE000E3010196A11DB11D8093E0019093E10105
:100BF000A093E201B093E301BF91AF919F918F91D8
:100C00003F912F910F900FBE0F901F90189526E8DF
:100C1000230F0296A11DB11DD2CF1F920F920FB6C6
:100C20000F9211242F933F934F935F936F937F9372
:100C30008F939F93AF93BF93EF93FF9384EE91E0D5
:100C40000E94B001FF91EF91BF91AF919F918F9161
:100C50007F916F915F914F913F912F910F900FBEB8
:100C60000F901F9018951F920F920FB60F9211249C
:100C70002F938F939F93EF93FF93E091F401F09163
:100C8000F5018081E091FA01F091FB0182FD1BC02A
:100C900090818091FD018F5F8F732091FE018217FB
:100CA00041F0E091FD01F0E0EC51FE4F958F809313
:100CB000FD01FF91EF919F918F912F910F900FBEAA
:100CC0000F901F9018958081F4CF1F920F920FB64E
:100CD0000F9211242F933F934F935F936F937F93C2
:100CE0008F939F93AF93BF93EF93FF938091B9003E
:100CF000887F803609F44AC0F0F5883209F4A5C02F
:100D000018F5803109F499C0B8F4882309F4F5C0C6
:100D1000883009F492C0FF91EF91BF91AF919F91FC
:100D20008F917F916F915F914F913F912F910F9094
:100D30000FBE0F901F901895883109F486C080323D
:100D400051F78093AF0114C0803409F49BC040F484
:100D50008033B9F38833F9F68093AF0185ECAEC0E8
:100D6000803509F483C0883509F494C0883499F635
:100D70000E948B05D0CF883909F48AC038F58837AE
:100D800029F050F4883611F0803729F683E08093FB
:100D9000B10110928A0155C0883809F479C08039B0
:100DA00019F0803809F0B7CF80918A01803208F0BD
:100DB0006FC0E0918A0181E08E0F80938A0180915B
:100DC000BB00F0E0E659FE4F80833BC0803B39F02A
:100DD000D0F4803A09F477C0883A09F09CCF84E0D7
:100DE0008093B1011092690110926801F0E0E0E097
:100DF00009958091680181110FC081E0809368019D
:100E00001092480109C0803C09F4A8CF883C09F43D
:100E1000A5CF883B09F07FCFE091690181E08E0F7B
:100E200080936901F0E0E85BFE4F80818093BB0016
:100E3000909169018091680129C080918C01809313
:100E4000BB0085EC8093BC0066CF9091AE01809191
:100E5000AD01981758F5E091AE0181E08E0F8093B7
:100E6000AE01F0E0E357FE4F8081E9CFE091AE01A3
:100E700081E08E0F8093AE018091BB00F0E0E357DC
:100E8000FE4F80839091AE018091AD019817C8F21A
:100E900085E8D8CFE091AE0181E08E0F8093AE015E
:100EA0008091BB00F0E0E357FE4F80838091B0015A
:100EB00081115ECF81E080938B0184EA8093BC0036
:100EC0001092B10128CF85EC8093BC001092B10143
:100ED00080918A01803230F4E0918A01F0E0E65995
:100EE000FE4F108260918A0170E08AE691E0F0E0A6
:100EF000E0E0099510928A010ECF1092AF0138CF31
:100F0000E4EEF1E01382128288EE93E0A0E0B0E01C
:100F100084839583A683B78324E031E031832083E3
:100F200025EC30E03587248724EC30E037872687AE
:100F300020EC30E0318B208B21EC30E0338B228BA6
:100F400022EC30E0358B248B26EC30E0378B268B7F
:100F5000118E128E138E148EE1E8F2E0138212824B
:100F600084839583A683B78386E191E09183808310
:100F7000EDE8F2E01382128288E291E091838083AF
:100F800087E2848380E1818782E0828713860895E7
:100F9000789484B5826084BD84B5816084BD85B554
:100FA000826085BD85B5816085BD80916E00816060
:100FB00080936E0010928100809181008260809306
:100FC0008100809181008160809381008091800008
:100FD0008160809380008091B10084608093B10033
:100FE0008091B00081608093B00080917A0084602D
:100FF00080937A0080917A00826080937A00809159
:101000007A00816080937A0080917A008068809372
:101010007A001092C1008EE00E9487008FE00E944B
:101020008700E091F401F091F50182E08083E09186
:10103000F001F091F1011082E091F201F091F301E1
:101040008FEC80831092FC01E091F801F091F9019E
:1010500086E08083E091F601F091F7018081806164
:101060008083E091F601F091F701808188608083B0
:10107000E091F601F091F701808180688083E09132
:10108000F601F091F70180818F7D808300E010E010
:101090008EE00E94FB007C018FE00E94FB00EC01CF
:1010A000B701FF0C880B990B0E94CB0920E030E0C0
:1010B00040EA50E40E94800A20E030EC4FE754E41C
:1010C0000E94280920E030E048EC52E40E94800AA7
:1010D0006B017C01BE01DD0F880B990B0E94CB09CF
:1010E00020E030E040EA50E40E94800A20E030EC4A
:1010F0004FE754E40E94280920E030E048EC52E435
:101100000E94800A9B01AC01C701B6010E94B6088B
:101110006B017C0122E0BC01A60184EE91E00E94FB
:1011200055046CE371E084EE91E00E94FA0380E0E4
:101130000E947E056FE371E08DE892E00E94FA0361
:1011400087E00E947E0522E0B701A6018DE892E0CB
:101150000E9455040115110509F49ACF0E949C01C3
:10116000882309F495CF0E94000092CF5058BB27E6
:10117000AA270E94CE080C94410A0E94330A38F034
:101180000E943A0A20F039F49F3F19F426F40C9497
:10119000300A0EF4E095E7FB0C942A0AE92F0E942E
:1011A000520A58F3BA17620773078407950720F0AD
:1011B00079F4A6F50C94740A0EF4E0950B2EBA2F70
:1011C000A02D0B01B90190010C01CA01A00111244D
:1011D000FF27591B99F0593F50F4503E68F11A16F9
:1011E000F040A22F232F342F4427585FF3CF46958A
:1011F00037952795A795F0405395C9F77EF41F16AC
:10120000BA0B620B730B840BBAF09150A1F0FF0F75
:10121000BB1F661F771F881FC2F70EC0BA0F621F61
:10122000731F841F48F4879577956795B795F79551
:101230009E3F08F0B0CF9395880F08F09927EE0FE6
:101240009795879508950E94060A08F481E008950D
:101250000E943C090C94410A0E943A0A58F00E94EC
:10126000330A40F029F45F3F29F00C942A0A511107
:101270000C94750A0C94300A0E94520A68F3992360
:10128000B1F3552391F3951B550BBB27AA27621782
:101290007307840738F09F5F5F4F220F331F441F8F
:1012A000AA1FA9F335D00E2E3AF0E0E832D09150C3
:1012B0005040E695001CCAF72BD0FE2F29D0660FB0
:1012C000771F881FBB1F261737074807AB07B0E8F3
:1012D00009F0BB0B802DBF01FF2793585F4F3AF0F9
:1012E0009E3F510578F00C942A0A0C94750A5F3FD2
:1012F000E4F3983ED4F3869577956795B795F7957F
:101300009F5FC9F7880F911D9695879597F9089566
:10131000E1E0660F771F881FBB1F62177307840702
:10132000BA0720F0621B730B840BBA0BEE1F88F711
:10133000E09508950E945A0A88F09F5798F0B92FB7
:101340009927B751B0F0E1F0660F771F881F991FFA
:101350001AF0BA95C9F714C0B13091F00E94740A1E
:10136000B1E008950C94740A672F782F8827B85F2E
:1013700039F0B93FCCF3869577956795B395D9F752
:101380003EF490958095709561957F4F8F4F9F4F5C
:101390000895E89409C097FB3EF490958095709568
:1013A00061957F4F8F4F9F4F9923A9F0F92F96E9B1
:1013B000BB279395F695879577956795B795F11126
:1013C000F8CFFAF4BB0F11F460FF1BC06F5F7F4FC3
:1013D0008F4F9F4F16C0882311F096E911C07723D5
:1013E00021F09EE8872F762F05C0662371F096E8DE
:1013F000862F70E060E02AF09A95660F771F881FAD
:10140000DAF7880F9695879597F90895990F000850
:10141000550FAA0BE0E8FEEF16161706E807F907C6
:10142000C0F012161306E407F50798F0621B730B61
:10143000840B950B39F40A2661F0232B242B252BE2
:1014400021F408950A2609F4A140A6958FEF811D85
:10145000811D089597F99F6780E870E060E0089526
:101460009FEF80EC089500240A94161617061806BC
:101470000906089500240A94121613061406050698
:101480000895092E0394000C11F4882352F0BB0F29
:1014900040F4BF2B11F460FF04C06F5F7F4F8F4F8C
:1014A0009F4F089557FD9058440F551F59F05F3FC7
:1014B00071F04795880F97FB991F61F09F3F79F076
:1014C00087950895121613061406551FF2CF4695F8
:1014D000F1DF08C0161617061806991FF1CF86957A
:1014E0007105610508940895E894BB27662777275E
:1014F000CB0197F908950E94060A08F48FEF08952A
:101500000E94930A0C94410A0E94330A38F00E9408
:101510003A0A20F0952311F00C942A0A0C94300A10
:1015200011240C94750A0E94520A70F3959FC1F31E
:10153000950F50E0551F629FF001729FBB27F00D81
:10154000B11D639FAA27F00DB11DAA1F649F6627D6
:10155000B00DA11D661F829F2227B00DA11D621F25
:10156000739FB00DA11D621F839FA00D611D221FDF
:10157000749F3327A00D611D231F849F600D211DC3
:10158000822F762F6A2F11249F5750409AF0F1F046
:1015900088234AF0EE0FFF1FBB1F661F771F881FAF
:1015A00091505040A9F79E3F510580F00C942A0AB3
:1015B0000C94750A5F3FE4F3983ED4F386957795D3
:1015C0006795B795F795E7959F5FC1F7FE2B880F55
:1015D000911D9695879597F908950E94060A880BA4
:1015E000990B0895A1E21A2EAA1BBB1BFD010DC089
:1015F000AA1FBB1FEE1FFF1FA217B307E407F507C3
:1016000020F0A21BB30BE40BF50B661F771F881F9E
:10161000991F1A9469F760957095809590959B0134
:10162000AC01BD01CF010895EE0FFF1F0590F491AD
:08163000E02D0994F894FFCFAE
:1016380000000000D20132015F011F0290016E011B
:10164800820100000000E102B402F703A602AD0225
:10165800AA02A7020000000085053201F7033F0235
:101668006E616E00696E66006F7666000D0A005343
:061678007568753A0000E0
:00000001FF
